:020000040800F2
:1000000000280020151E0008A51D0008AB1D0008D3
:10001000B11D0008B71D0008BD1D0008000000004C
:10002000000000000000000000000000C31D0008E8
:10003000CF1D000800000000DB1D0008E71D0008C0
:100040005D1E00085D1E00085D1E00085D1E0008A4
:100050005D1E00085D1E00085D1E00085D1E000894
:100060005D1E00085D1E00085D1E00085D1E000884
:100070005D1E00085D1E00085D1E00085D1E000874
:100080005D1E00085D1E00085D1E00085D1E000864
:100090005D1E00085D1E00085D1E00085D1E000854
:1000A0005D1E00085D1E00085D1E00085D1E000844
:1000B000F51D00085D1E0008000000005D1E000820
:1000C0005D1E000800000000000000005D1E00082A
:1000D000000000005D1E00085D1E0008000000001A
:1000E0005D1E00085D1E00085D1E00080000000087
:1000F0000000000000000000000000000000000000
:0C01000000000000000000005FF808F1A3
:10010C0010B5054C237833B9044B13B10448AFF345
:10011C0000800123237010BD6C0000200000000043
:10012C00B434000808B5034B1BB103490348AFF3C3
:10013C00008008BD0000000070000020B4340008EE
:10014C0080B400AF064B1B68012B04D1044B00227A
:10015C001A60012300E000231846BD4680BC70479E
:10016C008800002080B400AF064B1B68012B04D123
:10017C00044B00221A60012300E000231846BD4600
:10018C0080BC70478C00002080B400AF064B1B680D
:10019C00012B04D1044B00221A60012300E0002340
:1001AC001846BD4680BC70479000002080B400AF5C
:1001BC00034B01221A6000BFBD4680BC704700BFD4
:1001CC008800002080B400AF034B01221A6000BFEE
:1001DC00BD4680BC704700BF8C00002080B400AFCF
:1001EC00034B01221A6000BFBD4680BC704700BFA4
:1001FC009000002080B500AF5C4B5B685B4A1360DD
:10020C005A4B9B68594A53604FF40051584802F0BE
:10021C000BF903461A46554B9A60544B1A68534BCC
:10022C005B689A4225D1514B5A68504B9B689A4255
:10023C001FD14E4BDA684D4B9B689A420DD04B4BFD
:10024C009B684A4AD360494B9B68002B11D1FFF73E
:10025C00ADFF484BC8221A600BE0464B1B68013BB4
:10026C00444A1360434B1B68002B02DC3F4B0122BA
:10027C00DA60414B5B68404A13603F4B9B683E4AD7
:10028C0053604FF480413A4802F0CEF803461A46C8
:10029C00394B9A60384B1A68374B5B689A4225D1B8
:1002AC00354B5A68344B9B689A421FD1324BDA68F3
:1002BC00314B9B689A420DD02F4B9B682E4AD360D2
:1002CC002D4B9B68002B11D1FFF77CFF294BC822CB
:1002DC001A600BE0274B1B68013B264A1360254B29
:1002EC001B68002B02DC244B0122DA60234B5B6879
:1002FC00224A1360214B9B68204A53604FF4004103
:10030C001B4802F091F803461A461C4B9A601B4B93
:10031C001A681A4B5B689A4225D1184B5A68174BCE
:10032C009B689A421FD1154BDA68144B9B689A4212
:10033C000DD0124B9B68114AD360104B9B68002B5D
:10034C0011D1FFF74BFF0B4BC8221A600BE0094B86
:10035C001B68013B074A1360064B1B68002B02DC31
:10036C00064B0122DA6000BF80BD00BF00000020F8
:10037C00000C014030000020100000202000002064
:10038C0080B500AF714B1B68032B00F2D48001A227
:10039C0052F823F0B1030008110400086F040008A0
:1003AC00D904000800224FF40071694802F053F898
:1003BC0001224FF48061664802F04DF801224FF49F
:1003CC000061634802F047F801220221614802F003
:1003DC0042F8614B1B680C2B03D1002001F0BCF9D7
:1003EC00ABE05D4B1B680D2B03D1002001F0B4F981
:1003FC00A3E0594B1B680E2B40F09F80002001F0AE
:10040C00ABF99AE001224FF40071514802F023F845
:10041C0000224FF480614E4802F01DF801224FF487
:10042C0000614B4802F017F801220221494802F002
:10043C0012F8494B1B680C2B03D1022001F08CF9EC
:10044C007DE0454B1B680D2B03D1032001F084F993
:10045C0075E0414B1B680E2B71D1042001F07CF927
:10046C006DE001224FF40071394801F0F4FF0122D4
:10047C004FF48061364801F0EEFF00224FF400612A
:10048C00334801F0E8FF01220221324801F0E3FF7A
:10049C00314B1B680C2B05D1304B1B68184600F0F8
:1004AC00C3FF4EE02C4B1B680D2B05D12C4B1B684E
:1004BC00184600F0B9FF44E0274B1B680E2B40D1C7
:1004CC00284B1B68184600F0AFFF3AE001224FF4AE
:1004DC0000711F4801F0BFFF01224FF480611C48DE
:1004EC0001F0B9FF01224FF40061194801F0B3FF8C
:1004FC0000220221174801F0AEFF174B1B680C2B92
:10050C0005D1164B5B68184601F026F91BE0124B1F
:10051C001B680D2B05D1124B5B68184601F01CF9BA
:10052C0011E00D4B1B680E2B0DD10E4B5B68184662
:10053C0001F012F907E000BF06E000BF04E000BFC5
:10054C0002E000BF00E000BF00BF80BDD000002073
:10055C00000C014000080140340000204400002041
:10056C004C0000205400002080B500AF0122022175
:10057C00144801F070FF01220421124801F06BFFB6
:10058C00012210210F4801F066FF012220210D48A5
:10059C0001F061FF01224FF480510A4801F05BFF2A
:1005AC0001224021074801F056FF01228021054815
:1005BC0001F051FF01224FF48071024801F04BFF12
:1005CC0000BF80BD000C014080B500AF01220121AD
:1005DC00144801F040FF01220821124801F03BFFB2
:1005EC00012204210F4801F036FF012220210D4881
:1005FC0001F031FF01224FF480510A4801F02BFF2A
:10060C0001224021074801F026FF012280210548E4
:10061C0001F021FF01224FF48071024801F01BFF11
:10062C0000BF80BD000C014080B500AF012201214C
:10063C00144801F010FF01220821124801F00BFFB1
:10064C00012202210F4801F006FF012210210D4862
:10065C0001F001FF01224FF480510A4801F0FBFE2A
:10066C0001224021074801F0F6FE012280210548B5
:10067C0001F0F1FE01224FF48071024801F0EBFE13
:10068C0000BF80BD000C014080B500AFA84B1B68BB
:10069C000A3B042B00F2CB8101A252F823F000BFDD
:1006AC00C10600085F0700089707000869080008E2
:1006BC0065090008012201219E4801F0CCFE0122AF
:1006CC0008219C4801F0C7FE01220421994801F041
:1006DC00C2FE01222021974801F0BDFE0122022119
:1006EC00944801F0B8FE01221021924801F0B3FEAB
:1006FC0001224FF480518F4801F0ADFE01224021C0
:10070C008C4801F0A8FE012280218A4801F0A3FE4A
:10071C0001224FF48071874801F09DFE01224FF4B5
:10072C000071844801F097FE01224FF480618148EA
:10073C0001F091FE01224FF400617E4801F08BFE26
:10074C00012202217C4801F086FE794B0B221A60B3
:10075C0076E100F093FBFFF7F3FC0346012B40F02E
:10076C006881734B0C221A60744B00221A60FA20B9
:10077C0001F038FA012201216E4801F06CFE0122D1
:10078C0008216C4801F067FE53E16D4B1B68012B8F
:10079C0010D16A4B1B680133684A1360674B1B68A6
:1007AC00032B02DD654B00221A60FFF7E9FDFA20EE
:1007BC0001F018FAFFF7D8FE624B1B68012B0BD126
:1007CC0001215C4801F05FFE08215A4801F05BFEF4
:1007DC004FF4FA6001F0D2F9FFF7C4FC0346012B89
:1007EC0004D1594B5B680133574A5360564B5B68D5
:1007FC00092B0EDD544B1B680133534A1360524BCB
:10080C0000225A60504B1B68092B02DD4E4B002214
:10081C001A60FFF7B9FC0346012B0BD14A4B1A683F
:10082C0013469B0013445B001A46474B5B6813440A
:10083C00464A1360FFF784FC0346012B40F0FB8013
:10084C003B4B0D221A604FF4FA6001F097F93B4BC9
:10085C0000221A60FA2001F0C5F9ECE0FFF7B4FEB3
:10086C00374B1B68012B10D1344B1B680133334AB7
:10087C001360324B1B68032B02DD304B00221A60D5
:10088C00FFF77EFDFA2001F0ADF92E4B1B68012B12
:10089C000BD10221274801F0F6FD1021254801F06B
:1008AC00F2FD4FF4FA6001F069F9FFF75BFC0346C7
:1008BC00012B04D1264B5B680133254A5360244B32
:1008CC005B68092B0EDD224B1B680133204A136039
:1008DC001F4B00225A601E4B1B68092B02DD1C4B60
:1008EC0000221A60FFF750FC0346012B0BD1184B6A
:1008FC001A6813469B0013445B001A46144B5B6842
:10090C001344144A1360FFF71BFC0346012B40F001
:10091C009480074B0E221A604FF4FA6001F02EF906
:10092C00064B00221A60FA2001F05CF985E000BF4A
:10093C0034000020000C014000080140D0000020D1
:10094C00F4000020E40000204400002038000020C7
:10095C004C0000203C000020FFF766FE394B1B6862
:10096C00012B10D1384B1B680133374A1360364BBF
:10097C001B68032B02DD344B00221A60FFF700FDCD
:10098C00FA2001F02FF9314B1B68012B0BD10421FC
:10099C002F4801F078FD20212D4801F074FD4FF413
:1009AC00FA6001F0EBF8FFF7DDFB0346012B04D1F5
:1009BC00284B5B680133274A5360264B5B68092B35
:1009CC000EDD244B1B680133224A1360214B00229D
:1009DC005A60204B1B68092B02DD1E4B00221A604B
:1009EC00FFF7D2FB0346012B0BD11A4B1A681346A7
:1009FC009B0013445B001A46164B5B681344164A63
:100A0C001360FFF79DFB0346012B18D1134B0B22F0
:100A1C001A60134B01221A60124B05221A604FF414
:100A2C00FA6001F0ABF8FA2001F0C2F807E000BF61
:100A3C0006E000BF04E000BF02E000BF00E000BF22
:100A4C0000BF80BDF4000020D0000020E400002096
:100A5C00000C014054000020400000203400002015
:100A6C00C8000020C400002080B400AF494B1B68B4
:100A7C00042B2AD0042B3ADC022B02D0032B12D0ED
:100A8C0035E0454B5B68013B434A5360424B5B6826
:100A9C00002B2EDA404B09225A603F4B1B68013B5E
:100AAC003D4A136025E03D4B5B68013B3B4A53607C
:100ABC003A4B5B68002B1EDA384B09225A60374BD5
:100ACC001B68013B354A136015E0354B5B68013BF5
:100ADC00334A5360324B5B68002B0EDA304B0922E1
:100AEC005A602F4B1B68013B2D4A136005E000BF79
:100AFC0004E000BF02E000BF00E000BF294B1B6810
:100B0C00082B2AD0082B3ADC062B02D0072B12D04C
:100B1C0035E0254B5B68013B234A5360224B5B68F5
:100B2C00002B2EDA204B09225A601F4B1B68013B0D
:100B3C001D4A136025E01D4B5B68013B1B4A53604B
:100B4C001A4B5B68002B1EDA184B09225A60174BA4
:100B5C001B68013B154A136015E0154B5B68013BA4
:100B6C00134A5360124B5B68002B0EDA104B0922B0
:100B7C005A600F4B1B68013B0D4A136005E000BF28
:100B8C0004E000BF02E000BF00E000BF00BFBD46B4
:100B9C0080BC7047C8000020940000209C000020FE
:100BAC00A4000020C4000020AC000020B4000020F1
:100BBC00BC00002080B500AFA54B1B68032B00F2D6
:100BCC00438101A252F823F0E50B0008810C0008C8
:100BDC001D0D0008B90D000800224FF480519D48EE
:100BEC0001F039FC012240219A4801F034FC012229
:100BFC008021984801F02FFC01224FF48071954818
:100C0C0001F029FC00224FF40071924801F023FC02
:100C1C0001224FF480618F4801F01DFC01224FF43A
:100C2C0000618C4801F017FC012202218A4801F076
:100C3C0012FC8A4B1B68022B05D1894B1B6818468A
:100C4C0000F0F2FB12E0854B1B68032B05D1854BA2
:100C5C001B68184600F0E8FB08E0804B1B68042B6F
:100C6C0004D1814B1B68184600F0DEFB002000F01D
:100C7C0073FDEAE001224FF48051764801F0EBFB62
:100C8C0000224021734801F0E6FB012280217148CB
:100C9C0001F0E1FB01224FF480716E4801F0DBFBA7
:100CAC0001224FF400716B4801F0D5FB00224FF488
:100CBC008061684801F0CFFB01224FF40061654868
:100CCC0001F0C9FB01220221634801F0C4FB634B14
:100CDC001B68022B05D1624B5B68184600F0A4FB25
:100CEC0012E05E4B1B68032B05D15E4B5B6818460C
:100CFC0000F09AFB08E0594B1B68042B04D15A4BAB
:100D0C005B68184600F090FB012000F025FD9CE08C
:100D1C0001224FF480514F4801F09DFB01224021EC
:100D2C004C4801F098FB002280214A4801F093FBCB
:100D3C0001224FF48071474801F08DFB00224FF4E3
:100D4C000071444801F087FB01224FF48061414857
:100D5C0001F081FB01224FF400613E4801F07BFB66
:100D6C00012202213C4801F076FB404B1B68062B0C
:100D7C0005D13F4B1B68184600F056FB12E03B4B6D
:100D8C001B68072B05D13B4B1B68184600F04CFB2E
:100D9C0008E0364B1B68082B04D1374B1B681846F0
:100DAC0000F042FB002000F0D7FC4EE001224FF493
:100DBC008051284801F04FFB01224021254801F0C9
:100DCC004AFB01228021234801F045FB00224FF40D
:100DDC008071204801F03FFB01224FF400711D4847
:100DEC0001F039FB00224FF480611A4801F033FB0B
:100DFC0001224FF40061174801F02DFB0122022162
:100E0C00154801F028FB194B1B68062B05D1184B14
:100E1C005B68184600F008FB12E0144B1B68072BAC
:100E2C0005D1144B5B68184600F0FEFA08E00F4B36
:100E3C001B68082B04D1104B5B68184600F0F4FAC1
:100E4C00012000F089FC00E000BF00BF80BD00BFA6
:100E5C00CC000020000C014000080140C80000201C
:100E6C00940000209C000020A4000020C40000205E
:100E7C00AC000020B4000020BC00002080B500AF06
:100E8C00A04B1B68013B032B00F2A98001A252F876
:100E9C0023F000BFB10E0008190F00085F0F000807
:100EAC00A50F000801220121974801F0D4FA012274
:100EBC000221954801F0CFFA01220421924801F059
:100ECC00CAFA904B02221A60904B1B684FF47A724C
:100EDC0002FB03F3184600F01DFE8D4B1B688D4A78
:100EEC0013608B4B5B688B4A53608B4B1B688B4A34
:100EFC001360894B5B68894A5360894B1B68894A2C
:100F0C001360874B5B68874A53606FE000220121B6
:100F1C007D4801F0A0FA012202217B4801F09BFAE6
:100F2C0001220421784801F096FA7A4B1B68002BB9
:100F3C0057D1784B5B68002B53D1724B03221A604C
:100F4C00734B1B68734A1360714B5B68714A536037
:100F5C0047E0012201216C4801F07DFA00220221B8
:100F6C00694801F078FA01220421674801F073FA0C
:100F7C006A4B1B68002B36D1684B5B68002B32D157
:100F8C00604B04221A60644B1B68644A1360624B0A
:100F9C005B68624A536026E0012201215A4801F045
:100FAC005AFA01220221584801F055FA0022042174
:100FBC00554801F050FA5B4B1B68002B15D1594B6F
:100FCC005B68002B11D14F4B02221A60544B1B68EB
:100FDC00544A1360524B5B68524A536005E000BFA1
:100FEC0004E000BF02E000BF00E000BF4E4B1B68F6
:100FFC00053B032B00F2C58001A252F823F000BF81
:10100C001D10000885100008CB10000849110008BD
:10101C00012208213C4801F01EFA012210213A4815
:10102C0001F019FA01222021374801F014FA3E4B45
:10103C0007221A603D4B1B684FF47A7202FB03F3D4
:10104C00184600F081FD324B1B68394A1360304B57
:10105C005B68374A5360304B1B68364A13602E4B23
:10106C005B68344A53602E4B1B68334A13602C4B1D
:10107C005B68314A53608BE000220821224801F062
:10108C00EAF901221021204801F0E5F90122202182
:10109C001D4801F0E0F9264B1B68002B73D1244B43
:1010AC005B68002B6FD1204B07221A60184B1B6812
:1010BC001F4A1360164B5B681D4A536063E00122A4
:1010CC000821114801F0C7F9002210210E4801F047
:1010DC00C2F9012220210C4801F0BDF9154B1B6807
:1010EC00002B52D1134B5B68002B4ED10E4B0822B8
:1010FC001A60094B1B680F4A1360074B5B680D4A5B
:10110C00536042E0C8000020000C01403800002071
:10111C0044000020940000204C0000209C00002083
:10112C0054000020A4000020C40000203C0000203B
:10113C00AC000020B4000020BC00002001220821DB
:10114C00204801F088F9012210211E4801F083F992
:10115C00002220211B4801F07EF91B4B1B68002B41
:10116C0015D1194B5B68002B11D1184B06221A6054
:10117C00174B1B68144A1360154B5B68124A53607B
:10118C0005E000BF04E000BF02E000BF00E000BFCC
:10119C00FFF710FD0F4B1B68012B10D10E4B1B687A
:1011AC0001330D4A13600C4B1B68032B04DD0A4BF7
:1011BC0000221A60FFF758FCFA2000F0F9FC00BF7F
:1011CC0080BD00BF000C0140BC000020C40000200A
:1011DC0054000020EC000020CC00002080B500AFB3
:1011EC0000F038FE00F028F800F0AEF800F060F8DF
:1011FC000C4801F099FD0C4B0A221A600B4B012292
:10120C001A600B4B05221A604FF4FA6000F0B6FC22
:10121C00FA2000F0CDFC074B00221A60FFF734FADD
:10122C00FCE700BFFC00002034000020C8000020B8
:10123C00C4000020CC00002080B590B000AF07F1B6
:10124C00180328220021184602F026F93B1D002223
:10125C001A605A609A60DA601A610223BB6101233A
:10126C00BB621023FB6200237B6307F11803184653
:10127C0001F022F90346002B01D000F045FC0F23AE
:10128C007B600023BB600023FB6000233B610023D9
:10129C007B613B1D0021184601F08EFB0346002BA1
:1012AC0001D000F031FC00BF4037BD4680BD0000CE
:1012BC0080B586B000AF07F1080300221A605A60AF
:1012CC009A60DA603B4600221A605A601D4B4FF060
:1012DC0080421A601B4B41F63F725A60194B002238
:1012EC009A60184B0922DA60164B00221A61154BD2
:1012FC0000229A61134801F0C7FC0346002B01D071
:10130C0000F002FC4FF48053BB6007F10803194650
:10131C000C4801F05DFE0346002B01D000F0F4FBFD
:10132C0000233B6000237B603B461946054802F0D6
:10133C0025F80346002B01D000F0E6FB00BF183760
:10134C00BD4680BDFC00002080B586B000AF07F123
:10135C00080300221A605A609A60DA60294B9B6974
:10136C00284A43F004039361264B9B6903F0040362
:10137C007B607B68234B9B69224A43F00803936193
:10138C00204B9B6903F008033B603B6800224FF63F
:10139C00FE711D4801F05FF8002241F6FF711B48F9
:1013AC0001F059F84FF6FE73BB600123FB6000237C
:1013BC003B6102237B6107F108031946124800F0D8
:1013CC00B9FE41F6FF73BB600123FB6000233B6158
:1013DC0002237B6107F1080319460C4800F0AAFEB2
:1013EC004FF46043BB600023FB6001233B6107F1BA
:1013FC0008031946054800F09DFE00BF1837BD468E
:10140C0080BD00BF0010024000080140000C0140EC
:10141C0080B582B000AF786000F0FEFBFEF7EAFE0C
:10142C0000BF0837BD4680BD80B582B000AF786084
:10143C007B68092B00F28A8101A252F823F000BFCD
:10144C0075140008BF14000809150008531500088E
:10145C009D150008E7150008311600087B160008DA
:10146C00C51600080F17000800220421B94800F027
:10147C00F2FF00220821B74800F0EDFF00221021F6
:10148C00B44800F0E8FF00222021B24800F0E3FF4E
:10149C0000224021AF4800F0DEFF00228021AD4841
:1014AC0000F0D9FF01224FF48071AA4800F0D3FF5D
:1014BC004CE101220421A74800F0CDFF00220821B5
:1014CC00A44800F0C8FF00221021A24800F0C3FF7E
:1014DC00012220219F4800F0BEFF012240219D489F
:1014EC0000F0B9FF012280219A4800F0B4FF0122DC
:1014FC004FF48071974800F0AEFF27E100220421E1
:10150C00944800F0A8FF00220821924800F0A3FFA5
:10151C00012210218F4800F09EFF002220218D48CF
:10152C0000F099FF002240218A4800F094FF01222C
:10153C008021884800F08FFF00224FF4807185488D
:10154C0000F089FF02E100220421824800F083FFB1
:10155C00002208217F4800F07EFF002210217D48E8
:10156C0000F079FF002220217A4800F074FF01225C
:10157C004021784800F06FFF01228021754800F06F
:10158C006AFF00224FF48071724800F064FFDDE0C6
:10159C00012204216F4800F05EFF002208216D48F3
:1015AC0000F059FF002210216A4800F054FF01227C
:1015BC002021684800F04FFF01224021654800F0CF
:1015CC004AFF00228021634800F045FF00224FF4BF
:1015DC008071604800F03FFFB8E0002204215D48B4
:1015EC0000F039FF012208215A4800F034FF002294
:1015FC001021584800F02FFF00222021554800F000
:10160C002AFF01224021534800F025FF00228021AF
:10161C00504800F020FF00224FF480714D4800F03C
:10162C001AFF93E0002204214A4800F014FF012223
:10163C000821484800F00FFF00221021454800F017
:10164C000AFF00222021434800F005FF0022402120
:10165C00404800F000FF002280213E4800F0FBFED5
:10166C0000224FF480713B4800F0F5FE6EE0002242
:10167C000421384800F0EFFE00220821354800F024
:10168C00EAFE00221021334800F0E5FE0122202161
:10169C00304800F0E0FE012240212E4800F0DBFE35
:1016AC00012280212B4800F0D6FE01224FF48071DC
:1016BC00284800F0D0FE49E000220421254800F023
:1016CC00CAFE00220821234800F0C5FE002210218A
:1016DC00204800F0C0FE002220211E4800F0BBFE76
:1016EC00002240211B4800F0B6FE00228021194840
:1016FC0000F0B1FE00224FF48071164800F0ABFEF2
:10170C0024E000220421134800F0A5FE0022082149
:10171C00104800F0A0FE002210210E4800F09BFEA5
:10172C00002220210B4800F096FE0122402109489E
:10173C0000F091FE00228021064800F08CFE002271
:10174C004FF48071034800F086FE00BF00BF0837DD
:10175C00BD4680BD0008014080B582B000AF786006
:10176C007B68092B00F2C98101A252F823F000BF5B
:10177C00A5170008FB17000851180008A718000847
:10178C00FD18000853190008A9190008FF190008D2
:10179C00551A0008B11A000800224FF40071C04815
:1017AC0000F059FE00224FF48061BD4800F053FE5A
:1017BC0000224FF40061BA4800F04DFE00224FF4B5
:1017CC008051B74800F047FE00224FF40051B44856
:1017DC0000F041FE00224FF48041B14800F03BFE86
:1017EC0001224FF40041AE4800F035FE85E10122A4
:1017FC004FF40071AA4800F02EFE00224FF48061D5
:10180C00A74800F028FE00224FF40061A44800F025
:10181C0022FE01224FF48051A14800F01CFE01224F
:10182C004FF400519E4800F016FE01224FF4804107
:10183C009B4800F010FE01224FF40041984800F044
:10184C000AFE5AE100224FF40071954800F003FEA5
:10185C0000224FF48061924800F0FDFD01224FF40C
:10186C0000618F4800F0F7FD00224FF480518C4846
:10187C0000F0F1FD00224FF40051894800F0EBFD1F
:10188C0001224FF48041864800F0E5FD00224FF420
:10189C000041834800F0DFFD2FE100224FF400717E
:1018AC007F4800F0D8FD00224FF480617C4800F0A6
:1018BC00D2FD00224FF40061794800F0CCFD0022EB
:1018CC004FF48051764800F0C6FD01224FF40051D0
:1018DC00734800F0C0FD01224FF48041704800F0C5
:1018EC00BAFD00224FF400416D4800F0B4FD04E154
:1018FC0001224FF400716A4800F0ADFD00224FF454
:10190C008061674800F0A7FD00224FF40061644835
:10191C0000F0A1FD01224FF48051614800F09BFDC5
:10192C0001224FF400515E4800F095FD00224FF467
:10193C0080415B4800F08FFD00224FF40041584875
:10194C0000F089FDD9E000224FF40071544800F0FA
:10195C0082FD01224FF48061514800F07CFD002291
:10196C004FF400614E4800F076FD00224FF4805198
:10197C004B4800F070FD01224FF40051484800F034
:10198C006AFD00224FF48041454800F064FD0022BE
:10199C004FF40041424800F05EFDAEE000224FF4EF
:1019AC0000713F4800F057FD01224FF480613C4824
:1019BC0000F051FD00224FF40061394800F04BFD5E
:1019CC0000224FF48051364800F045FD00224FF4C0
:1019DC000051334800F03FFD00224FF48041304865
:1019EC0000F039FD00224FF400412D4800F033FD8A
:1019FC0083E000224FF40071294800F02CFD0022F6
:101A0C004FF48061264800F026FD00224FF400615F
:101A1C00234800F020FD01224FF48051204800F0B3
:101A2C001AFD01224FF400511D4800F014FD012253
:101A3C004FF480411A4800F00EFD01224FF4004192
:101A4C00174800F008FD58E000224FF400711448CC
:101A5C0000F001FD00224FF48061114800F0FBFC06
:101A6C0000224FF400610E4800F0F5FC00224FF408
:101A7C0080510B4800F0EFFC00224FF40051084855
:101A8C0000F0E9FC00224FF48041054800F0E3FC33
:101A9C0000224FF40041024800F0DDFC2DE000BFB5
:101AAC000008014000224FF40071164800F0D3FCEE
:101ABC0000224FF48061134800F0CDFC00224FF45B
:101ACC000061104800F0C7FC00224FF480510D4813
:101ADC0000F0C1FC01224FF400510A4800F0BBFC9D
:101AEC0000224FF48041074800F0B5FC00224FF46F
:101AFC000041044800F0AFFC00BF00BF0837BD46F2
:101B0C0080BD00BF0008014080B400AF72B600BFBA
:101B1C00FEE7000080B483B000AF7860074B1B6811
:101B2C007A6892FBF3F3064A1360064B00221A60A4
:101B3C0000BF0C37BD4680BC704700BF5C00002066
:101B4C00D8000020D400002080B483B000AF7860AF
:101B5C00074B1B687A6892FBF3F3064A1360064B3B
:101B6C0000221A6000BF0C37BD4680BC704700BF16
:101B7C005C000020E0000020DC00002080B483B07A
:101B8C0000AF7860074B1B687A6892FBF3F3064A48
:101B9C001360064B00221A6000BF0C37BD4680BC98
:101BAC00704700BF5C000020E8000020E40000202B
:101BBC0080B483B000AF7860074B1B687A6892FBE7
:101BCC00F3F3064A1360064B00221A6000BF0C3771
:101BDC00BD4680BC704700BF5C000020F0000020B8
:101BEC00EC00002080B483B000AF7860074B1B681A
:101BFC007A6892FBF3F3064A1360064B00221A60D4
:101C0C0000BF0C37BD4680BC704700BF5C00002095
:101C1C00F8000020F400002080B400AF294B1B68B2
:101C2C00002B0BDD274B1B68013B264A1360254B11
:101C3C001B68002B02DC244B01221A60234B1B680F
:101C4C00002B0BDD214B1B68013B204A13601F4B03
:101C5C001B68002B02DC1E4B01221A601D4B1B68FB
:101C6C00002B0BDD1B4B1B68013B1A4A1360194BF5
:101C7C001B68002B02DC184B01221A60174B1B68E7
:101C8C00002B0BDD154B1B68013B144A1360134BE7
:101C9C001B68002B02DC124B01221A60114B1B68D3
:101CAC00002B0BDD0F4B1B68013B0E4A13600D4BD9
:101CBC001B68002B02DC0C4B01221A6000BFBD46D6
:101CCC0080BC7047D8000020D4000020E000002029
:101CDC00DC000020E8000020E4000020F0000020E0
:101CEC00EC000020F8000020F400002080B485B047
:101CFC0000AF154B9B69144A43F001039361124BDF
:101D0C009B6903F00103BB60BB680F4BDB690E4A98
:101D1C0043F08053D3610C4BDB6903F080537B6041
:101D2C007B680A4B5B68FB60FB6823F0E063FB603D
:101D3C00FB6843F08063FB60044AFB68536000BFA0
:101D4C001437BD4680BC70470010024000000140B3
:101D5C0080B584B000AF78607B681B68B3F1804FAE
:101D6C0013D10C4BDB690B4A43F00103D361094BD4
:101D7C00DB6903F00103FB60FB68002200211C20DF
:101D8C0000F0A1F91C2000F0BAF900BF1037BD46D5
:101D9C0080BD00BF0010024080B400AFFEE780B4ED
:101DAC0000AFFEE780B400AFFEE780B400AFFEE703
:101DBC0080B400AFFEE780B400AF00BFBD4680BC6E
:101DCC00704780B400AF00BFBD4680BC704780B484
:101DDC0000AF00BFBD4680BC704780B500AF00F0BF
:101DEC007FF800BF80BD000080B500AF024800F056
:101DFC00E7FF00BF80BD00BFFC00002080B400AF37
:101E0C0000BFBD4680BC70470C480D490D4A0023ED
:101E1C0002E0D458C4500433C4188C42F9D30A4A93
:101E2C000A4C002301E013600432A242FBD3FFF7FB
:101E3C00E5FF01F00DFBFFF7D1F970470000002022
:101E4C006C000020F43400086C00002048010020D5
:101E5C00FEE7000080B500AF084B1B68074A43F053
:101E6C0010031360032000F023F90F2000F008F892
:101E7C00FFF73CFF0023184680BD00BF0020024046
:101E8C0080B582B000AF7860124B1A68124B1B7889
:101E9C0019464FF47A73B3FBF1F3B2FBF3F3184624
:101EAC0000F03BF90346002B01D001230EE07B68C8
:101EBC000F2B0AD8002279684FF0FF3000F003F99D
:101ECC00064A7B681360002300E00123184608379C
:101EDC00BD4680BD6000002068000020640000202A
:101EEC0080B400AF054B1B781A46054B1B68134496
:101EFC00034A136000BFBD4680BC704768000020D9
:101F0C004401002080B400AF024B1B681846BD464C
:101F1C0080BC70474401002080B485B000AF78606D
:101F2C007B6803F00703FB600C4BDB68BB60BA6893
:101F3C004FF6FF031340BB60FB681A02BB681343E8
:101F4C0043F0BF6343F40033BB60044ABB68D36007
:101F5C0000BF1437BD4680BC704700BF00ED00E0E9
:101F6C0080B400AF044BDB681B0A03F00703184670
:101F7C00BD4680BC704700BF00ED00E080B483B06C
:101F8C0000AF0346FB7197F90730002B0BDBFB7995
:101F9C0003F01F02064997F907305B09012000FA8C
:101FAC0002F241F8232000BF0C37BD4680BC7047BD
:101FBC0000E100E080B483B000AF03463960FB71F0
:101FCC0097F90730002B0ADB3B68DAB20C4997F91A
:101FDC0007301201D2B20B4483F800230AE03B68AD
:101FEC00DAB20849FB7903F00F03043B1201D2B2B9
:101FFC000B441A7600BF0C37BD4680BC704700BF3F
:10200C0000E100E000ED00E080B489B000AFF860C2
:10201C00B9607A60FB6803F00703FB61FB69C3F1ED
:10202C000703042B28BF0423BB61FB690433062B75
:10203C0002D9FB69033B00E000237B614FF0FF32C8
:10204C00BB6902FA03F3DA43BB681A407B699A4016
:10205C004FF0FF317B6901FA03F3D9437B680B40E6
:10206C00134318462437BD4680BC704780B582B0F8
:10207C0000AF78607B68013BB3F1807F01D3012313
:10208C000FE00A4A7B68013B53600F214FF0FF3091
:10209C00FFF790FF054B00229A60044B07221A6051
:1020AC00002318460837BD4680BD00BF10E000E095
:1020BC0080B582B000AF78607868FFF72DFF00BF65
:1020CC000837BD4680BD80B586B000AF0346B96009
:1020DC007A60FB7300237B61FFF742FF78617A68BB
:1020EC00B9687869FFF790FF024697F90F301146EF
:1020FC001846FFF75FFF00BF1837BD4680BD80B59F
:10210C0082B000AF0346FB7197F907301846FFF712
:10211C0035FF00BF0837BD4680BD80B582B000AF2B
:10212C0078607868FFF7A2FF034618460837BD466B
:10213C0080BD000080B48BB000AF786039600023A4
:10214C007B6200233B6248E101227B6A02FA03F3C3
:10215C00FB613B681B68FA691340BB61BA69FB6998
:10216C009A4240F037813B685B68A34A93425ED049
:10217C00A14A934275D8A14A934258D09F4A9342A0
:10218C006FD89F4A934252D09D4A934269D89D4A38
:10219C0093424CD09B4A934263D89B4A934246D07D
:1021AC00994A93425DD8122B2AD8122B59D801A2E6
:1021BC0052F823F03B2200081522000827220008C1
:1021CC00692200086F2200086F2200086F220008A5
:1021DC006F2200086F2200086F2200086F2200088F
:1021EC006F2200086F2200086F2200086F2200087F
:1021FC006F2200086F2200081D22000831220008FF
:10220C00824A934213D02CE03B68DB683B6229E0A6
:10221C003B68DB6804333B6224E03B68DB680833D3
:10222C003B621FE03B68DB680C333B621AE03B68A7
:10223C009B68002B02D104233B6213E03B689B6834
:10224C00012B05D108233B627B68FA691A6109E00E
:10225C0008233B627B68FA695A6103E000233B6206
:10226C0000E000BFBB69FF2B01D87B6801E07B68F5
:10227C0004337B61BB69FF2B02D87B6A9B0002E0B5
:10228C007B6A083B9B003B617B691A680F213B69A9
:10229C0001FA03F3DB431A40396A3B6901FA03F391
:1022AC001A437B691A603B685B6803F08053002B10
:1022BC0000F09080564B9B69554A43F001039361A3
:1022CC00534B9B6903F00103BB60BB68514A7B6AAB
:1022DC009B08023352F82330FB607B6A03F0030344
:1022EC009B000F2202FA03F3DB43FA681340FB60F6
:1022FC007B68494A93420DD07B68484A934207D089
:10230C007B68474A934201D1022304E0032302E095
:10231C00012300E000237A6A02F00302920093404A
:10232C00FA681343FB603B497B6A9B080233FA68EB
:10233C0041F823203B685B6803F48033002B06D004
:10234C00384B1A683749BB6913430B6006E0354BB1
:10235C001A68BB69DB43334913400B603B685B680D
:10236C0003F40033002B06D02E4B5A682D49BB6961
:10237C0013434B6006E02B4B5A68BB69DB4329497E
:10238C0013404B603B685B6803F48013002B06D052
:10239C00244B9A682349BB6913438B6006E0214B9D
:1023AC009A68BB69DB431F4913408B603B685B68D1
:1023BC0003F40013002B06D01A4BDA681949BB69D9
:1023CC001343CB6006E0174BDA68BB69DB43154956
:1023DC001340CB607B6A01337B623B681A687B6A73
:1023EC0022FA03F3002B7FF4AFAE00BF00BF2C37F3
:1023FC00BD4680BC704700BF000032100000311099
:10240C00000022100000211000001210000011101A
:10241C00001002400000014000080140000C014087
:10242C00001001400004014080B485B000AF78601A
:10243C000B467B807B689A687B881340002B02D00C
:10244C000123FB7301E00023FB73FB7B184614375D
:10245C00BD4680BC704780B483B000AF78600B463B
:10246C007B8013467B707B78002B03D07A887B684B
:10247C001A6103E07B881A047B681A6100BF0C3771
:10248C00BD4680BC704780B485B000AF78600B4609
:10249C007B807B68DB68FB607A88FB6813401A04DE
:1024AC00FB68D9437B880B401A437B681A6100BFD9
:1024BC001437BD4680BC704780B586B000AF7860DD
:1024CC007B68002B01D101236CE27B681B6803F055
:1024DC000103002B00F08780924B5B6803F00C0328
:1024EC00042B0CD08F4B5B6803F00C03082B12D120
:1024FC008C4B5B6803F48033B3F5803F0BD1894B75
:10250C001B6803F40033002B6CD07B685B68002BDA
:10251C0068D1012346E27B685B68B3F5803F06D146
:10252C00804B1B687F4A43F4803313602EE07B683A
:10253C005B68002B0CD17B4B1B687A4A23F48033ED
:10254C001360784B1B68774A23F4802313601DE0DB
:10255C007B685B68B3F5A02F0CD1724B1B68714A7A
:10256C0043F4802313606F4B1B686E4A43F4803333
:10257C0013600BE06B4B1B686A4A23F480331360C7
:10258C00684B1B68674A23F4802313607B685B6885
:10259C00002B13D0FFF7B6FC386108E0FFF7B2FC54
:1025AC0002463B69D31A642B01D90323FAE15D4B34
:1025BC001B6803F40033002BF0D014E0FFF7A2FCEF
:1025CC00386108E0FFF79EFC02463B69D31A642B86
:1025DC0001D90323E6E1534B1B6803F40033002BB2
:1025EC00F0D100E000BF7B681B6803F00203002BF6
:1025FC0063D04C4B5B6803F00C03002B0BD0494BA6
:10260C005B6803F00C03082B1CD1464B5B6803F48E
:10261C008033002B16D1434B1B6803F00203002BB5
:10262C0005D07B681B69012B01D00123BAE13D4B1E
:10263C001B6823F0F8027B685B69DB0039491343A4
:10264C000B603AE07B681B69002B20D0364B0122D3
:10265C001A60FFF757FC386108E0FFF753FC02469D
:10266C003B69D31A022B01D903239BE12D4B1B6829
:10267C0003F00203002BF0D02A4B1B6823F0F80266
:10268C007B685B69DB00274913430B6015E0264B25
:10269C0000221A60FFF736FC386108E0FFF732FCC5
:1026AC0002463B69D31A022B01D903237AE11D4B55
:1026BC001B6803F00203002BF0D17B681B6803F04E
:1026CC000803002B3AD07B689B69002B19D0174B61
:1026DC0001221A60FFF716FC386108E0FFF712FCC4
:1026EC0002463B69D31A022B01D903235AE10D4B45
:1026FC005B6A03F00203002BF0D0012000F0A6FA75
:10270C001CE00A4B00221A60FFF7FCFB38610FE05B
:10271C00FFF7F8FB02463B69D31A022B08D90323B7
:10272C0040E100BF001002400000424280044242DF
:10273C009E4B5B6A03F00203002BE9D17B681B689C
:10274C0003F00403002B00F0A6800023FB75974BCD
:10275C00DB6903F08053002B0DD1944BDB69934A5A
:10276C0043F08053D361914BDB6903F08053BB6022
:10277C00BB680123FB758E4B1B6803F48073002B25
:10278C0018D18B4B1B688A4A43F480731360FFF794
:10279C00B9FB386108E0FFF7B5FB02463B69D31A79
:1027AC00642B01D90323FDE0814B1B6803F4807378
:1027BC00002BF0D07B68DB68012B06D17B4B1B6AAE
:1027CC007A4A43F0010313622DE07B68DB68002B2F
:1027DC000CD1764B1B6A754A23F001031362734BC1
:1027EC001B6A724A23F0040313621CE07B68DB68EB
:1027FC00052B0CD16D4B1B6A6C4A43F0040313621E
:10280C006A4B1B6A694A43F0010313620BE0674B86
:10281C001B6A664A23F001031362644B1B6A634A0A
:10282C0023F0040313627B68DB68002B15D0FFF7E1
:10283C0069FB38610AE0FFF765FB02463B69D31A76
:10284C0041F28832934201D90323ABE0574B1B6A08
:10285C0003F00203002BEED014E0FFF753FB3861BA
:10286C000AE0FFF74FFB02463B69D31A41F288326C
:10287C00934201D9032395E04C4B1B6A03F00203EE
:10288C00002BEED1FB7D012B05D1484BDB69474A70
:10289C0023F08053D3617B68DB69002B00F08180CF
:1028AC00424B5B6803F00C03082B61D07B68DB693F
:1028BC00022B46D13F4B00221A60FFF723FB3861F5
:1028CC0008E0FFF71FFB02463B69D31A022B01D924
:1028DC00032367E0354B1B6803F00073002BF0D12A
:1028EC007B681B6AB3F5803F08D1304B5B6823F4DF
:1028FC0000327B689B682D4913434B602B4B5B6804
:10290C0023F474127B68196A7B685B6A0B43274952
:10291C0013434B60274B01221A60FFF7F3FA38611F
:10292C0008E0FFF7EFFA02463B69D31A022B01D9F4
:10293C00032337E01D4B1B6803F00073002BF0D012
:10294C002FE01C4B00221A60FFF7DCFA386108E01C
:10295C00FFF7D8FA02463B69D31A022B01D903239D
:10296C0020E0124B1B6803F00073002BF0D118E031
:10297C007B68DB69012B01D1012313E00B4B5B68F6
:10298C00FB60FB6803F480327B681B6A9A4206D1B9
:10299C00FB6803F470127B685B6A9A4201D00123D6
:1029AC0000E0002318461837BD4680BD00100240D9
:1029BC00007000406000424280B584B000AF786087
:1029CC0039607B68002B01D10123D0E06A4B1B6876
:1029DC0003F007033A689A4210D9674B1B6823F03F
:1029EC00070265493B6813430B60634B1B6803F09C
:1029FC0007033A689A4201D00123B8E07B681B6850
:102A0C0003F00203002B20D07B681B6803F0040347
:102A1C00002B05D0594B5B68584A43F4E063536074
:102A2C007B681B6803F00803002B05D0534B5B68D5
:102A3C00524A43F460535360504B5B6823F0F002EE
:102A4C007B689B684D4913434B607B681B6803F0A4
:102A5C000103002B40D07B685B68012B07D1474BEF
:102A6C001B6803F40033002B15D101237FE07B6836
:102A7C005B68022B07D1414B1B6803F00073002BE2
:102A8C0009D1012373E03D4B1B6803F00203002BBB
:102A9C0001D101236BE0394B5B6823F003027B68A7
:102AAC005B68364913434B60FFF72CFAF8600AE079
:102ABC00FFF728FA0246FB68D31A41F28832934298
:102ACC0001D9032353E02D4B5B6803F00C027B68A8
:102ADC005B689B009A42EBD1274B1B6803F0070302
:102AEC003A689A4210D2244B1B6823F00702224901
:102AFC003B6813430B60204B1B6803F007033A68D9
:102B0C009A4201D0012332E07B681B6803F0040376
:102B1C00002B08D0194B5B6823F4E0627B68DB6800
:102B2C00164913434B607B681B6803F00803002BAA
:102B3C0009D0124B5B6823F460527B681B69DB0085
:102B4C000E4913434B6000F021F802460B4B5B68B7
:102B5C001B0903F00F030A49CB5C22FA03F3094A61
:102B6C001360094B1B681846FFF78AF900231846B7
:102B7C001037BD4680BD00BF00200240001002404F
:102B8C00DC340008600000206400002090B48AB09F
:102B9C0000AF2A4B3C1D0FCB84E80F0040F2012301
:102BAC003B800023FB610023BB6100237B6200237D
:102BBC007B6100233B62224B5B68FB61FB6903F08A
:102BCC000C03042B02D0082B03D02DE01D4B3B62D1
:102BDC002DE0FB699B0C03F00F0307F12802134453
:102BEC0013F8243C7B61FB6903F48033002B13D076
:102BFC00134B5B685B0C03F0010307F128021344D1
:102C0C0013F8283CBB617B690E4A02FB03F2BB69DB
:102C1C00B2FBF3F37B6204E07B690B4A02FB03F328
:102C2C007B627B6A3B6202E0064B3B6200BF3B6A05
:102C3C0018462837BD4690BC704700BFCC340008FE
:102C4C000010024000127A0000093D0080B485B0EB
:102C5C0000AF78600A4B1B680A4AA2FB03235B0A8D
:102C6C007A6802FB03F3FB6000BFFB685A1EFA6034
:102C7C00002BF9D100BF00BF1437BD4680BC704794
:102C8C0060000020D34D621080B582B000AF786038
:102C9C007B68002B01D1012341E07B6893F83D3028
:102CAC00DBB2002B06D17B68002283F83C207868CD
:102CBC00FFF74EF87B68022283F83D207B681A6888
:102CCC007B6804331946104600F06AFA7B680122CF
:102CDC0083F846207B68012283F83E207B68012222
:102CEC0083F83F207B68012283F840207B68012217
:102CFC0083F841207B68012283F842207B68012203
:102D0C0083F843207B68012283F844207B680122EE
:102D1C0083F845207B68012283F83D200023184668
:102D2C000837BD4680BD000080B485B000AF786028
:102D3C007B6893F83D30DBB2012B01D0012335E0E9
:102D4C007B68022283F83D207B681B68DA687B680D
:102D5C001B6842F00102DA607B681B68164A9342DA
:102D6C0009D07B681B68B3F1804F04D07B681B686B
:102D7C00124A934211D17B681B689B6803F00703CE
:102D8C00FB60FB68062B10D07B681B681A687B689D
:102D9C001B6842F001021A6007E07B681B681A6826
:102DAC007B681B6842F001021A6000231846143736
:102DBC00BD4680BC704700BF002C014000040040A1
:102DCC0080B582B000AF78607B681B681B6903F02C
:102DDC000203022B22D17B681B68DB6803F0020321
:102DEC00022B1BD17B681B686FF002021A617B6897
:102DFC0001221A777B681B689B6903F00303002B85
:102E0C0003D0786800F0B1F905E0786800F0A4F917
:102E1C00786800F0B3F97B6800221A777B681B682E
:102E2C001B6903F00403042B22D17B681B68DB684D
:102E3C0003F00403042B1BD17B681B686FF00402A6
:102E4C001A617B6802221A777B681B689B6903F402
:102E5C004073002B03D0786800F087F905E07868A0
:102E6C0000F07AF9786800F089F97B6800221A770B
:102E7C007B681B681B6903F00803082B22D17B6855
:102E8C001B68DB6803F00803082B1BD17B681B68ED
:102E9C006FF008021A617B6804221A777B681B6842
:102EAC00DB6903F00303002B03D0786800F05DF9B5
:102EBC0005E0786800F050F9786800F05FF97B68FD
:102ECC0000221A777B681B681B6903F01003102B18
:102EDC0022D17B681B68DB6803F01003102B1BD11D
:102EEC007B681B686FF010021A617B6808221A77E6
:102EFC007B681B68DB6903F44073002B03D0786894
:102F0C0000F033F905E0786800F026F9786800F0F5
:102F1C0035F97B6800221A777B681B681B6903F004
:102F2C000103012B0ED17B681B68DB6803F00103E6
:102F3C00012B07D17B681B686FF001021A6178685E
:102F4C00FEF766FA7B681B681B6903F08003802B15
:102F5C000ED17B681B68DB6803F08003802B07D1E4
:102F6C007B681B686FF080021A61786800F067FA62
:102F7C007B681B681B6903F04003402B0ED17B68F8
:102F8C001B68DB6803F04003402B07D17B681B6890
:102F9C006FF040021A61786800F0F9F87B681B68E2
:102FAC001B6903F02003202B0ED17B681B68DB68A8
:102FBC0003F02003202B07D17B681B686FF02002E5
:102FCC001A61786800F032FA00BF0837BD4680BD40
:102FDC0080B584B000AF786039607B6893F83C3082
:102FEC00012B01D10223B3E07B68012283F83C2042
:102FFC007B68022283F83D207B681B689B68FB6022
:10300C00FB6823F07703FB60FB6823F47F43FB60D2
:10301C007B681B68FA689A603B681B68B3F5005FB5
:10302C003ED0B3F5005F00F28780B3F5805F00F00F
:10303C008580B3F5805F7FD8702B1AD0702B7BD82E
:10304C00602B50D0602B77D8502B3CD0502B73D8A2
:10305C00402B58D0402B6FD8302B64D0302B6BD8F2
:10306C00202B60D0202B67D8002B5CD0102B5AD093
:10307C0062E07B6818683B6899683B685A683B68F3
:10308C00DB6800F05CF97B681B689B68FB60FB6885
:10309C0043F07703FB607B681B68FA689A604EE02C
:1030AC007B6818683B6899683B685A683B68DB68C2
:1030BC0000F045F97B681B689A687B681B6842F4D2
:1030CC0080429A603BE07B6818683B6859683B68B3
:1030DC00DB681A4600F0BCF87B681B685021184668
:1030EC0000F013F92BE07B6818683B6859683B6863
:1030FC00DB681A4600F0DAF87B681B68602118461A
:10310C0000F003F91BE07B6818683B6859683B6862
:10311C00DB681A4600F09CF87B681B684021184657
:10312C0000F0F3F80BE07B681A683B681B681946E3
:10313C00104600F0EAF802E000BF00E000BF7B6838
:10314C00012283F83D207B68002283F83C20002379
:10315C0018461037BD4680BD80B483B000AF786090
:10316C0000BF0C37BD4680BC704780B483B000AF45
:10317C00786000BF0C37BD4680BC704780B483B00C
:10318C0000AF786000BF0C37BD4680BC704780B480
:10319C0083B000AF786000BF0C37BD4680BC704771
:1031AC0080B485B000AF786039607B681B68FB60C9
:1031BC007B68254A934207D07B68B3F1804F03D0DC
:1031CC007B68224A934208D1FB6823F07003FB60B2
:1031DC003B685B68FA681343FB607B681A4A93424E
:1031EC0007D07B68B3F1804F03D07B68174A9342BA
:1031FC0008D1FB6823F44073FB603B68DB68FA681A
:10320C001343FB60FB6823F080023B685B6913434C
:10321C00FB607B68FA681A603B689A687B68DA62C4
:10322C003B681A687B689A627B68074A934203D1B1
:10323C003B681A697B681A637B6801225A6100BF7C
:10324C001437BD4680BC7047002C01400004004080
:10325C0080B487B000AFF860B9607A60FB681B6A15
:10326C007B61FB681B6A23F00102FB681A62FB6836
:10327C009B693B613B6923F0F0033B617B681B015D
:10328C003A6913433B617B6923F00A037B617A69DA
:10329C00BB6813437B61FB683A699A61FB687A6986
:1032AC001A6200BF1C37BD4680BC704780B487B023
:1032BC0000AFF860B9607A60FB681B6A23F01002FB
:1032CC00FB681A62FB689B697B61FB681B6A3B614C
:1032DC007B6923F470437B617B681B037A6913431E
:1032EC007B613B6923F0A0033B61BB681B013A691E
:1032FC0013433B61FB687A699A61FB683A691A620D
:10330C0000BF1C37BD4680BC704780B485B000AF91
:10331C00786039607B689B68FB60FB6823F0700306
:10332C00FB603A68FB68134343F00703FB607B6860
:10333C00FA689A6000BF1437BD4680BC704780B4F1
:10334C0087B000AFF860B9607A603B60FB689B683F
:10335C007B617B6923F47F437B613B681A027B684A
:10336C001A43BB6813437A6913437B61FB687A6920
:10337C009A6000BF1C37BD4680BC704780B485B0D6
:10338C0000AF786039607B6893F83C30012B01D139
:10339C00022341E07B68012283F83C207B680222F7
:1033AC0083F83D207B681B685B68FB607B681B684F
:1033BC009B68BB60FB6823F07003FB603B681B6879
:1033CC00FA681343FB607B681B68FA685A607B6879
:1033DC001B68144A934209D07B681B68B3F1804F79
:1033EC0004D07B681B68104A93420CD1BB6823F055
:1033FC008003BB603B685B68BA681343BB607B6847
:10340C001B68BA689A607B68012283F83D207B6850
:10341C00002283F83C20002318461437BD4680BC9C
:10342C00704700BF002C01400004004080B483B002
:10343C0000AF786000BF0C37BD4680BC704780B4CD
:10344C0083B000AF786000BF0C37BD4680BC7047BE
:10345C0070B500260C4D0D4C641BA410A64209D16E
:10346C0000F022F800260A4D0A4C641BA410A64258
:10347C0005D170BD55F8043B98470136EEE755F879
:10348C00043B98470136F2E7EC340008EC340008B2
:10349C00EC340008F034000803460244934200D197
:1034AC00704703F8011BF9E7F8B500BFF8BC08BC7E
:1034BC009E467047F8B500BFF8BC08BC9E467047E6
:1034CC0002030405060708090A0B0C0D0E0F101059
:1034DC0000000000000000000102030406070809B8
:0434EC0031010008A2
:0434F0000D010008C2
:1034F40001000000010000000100000001000000C4
:1035040001000000010000000100000001000000B3
:1035140001000000010000000100000001000000A3
:10352400C8000000010000000A00000005000000BF
:103534000300000001000000000000000000000083
:103544000500000000000000030000000A00000065
:0C3554000024F400100000000100000042
:0400000508001E15BC
:00000001FF
